{
  "contractName": "RewardPoints",
  "abi": [
    {
      "constant": true,
      "inputs": [
        {
          "name": "",
          "type": "uint256"
        }
      ],
      "name": "users",
      "outputs": [
        {
          "name": "id",
          "type": "uint256"
        },
        {
          "name": "addr",
          "type": "address"
        },
        {
          "name": "isApproved",
          "type": "bool"
        },
        {
          "name": "totalEarnedPoints",
          "type": "uint256"
        },
        {
          "name": "totalReedemedPoints",
          "type": "uint256"
        }
      ],
      "payable": false,
      "stateMutability": "view",
      "type": "function"
    },
    {
      "constant": true,
      "inputs": [
        {
          "name": "",
          "type": "uint256"
        }
      ],
      "name": "merchants",
      "outputs": [
        {
          "name": "id",
          "type": "uint256"
        },
        {
          "name": "addr",
          "type": "address"
        },
        {
          "name": "isApproved",
          "type": "bool"
        }
      ],
      "payable": false,
      "stateMutability": "view",
      "type": "function"
    },
    {
      "inputs": [],
      "payable": false,
      "stateMutability": "nonpayable",
      "type": "constructor"
    },
    {
      "anonymous": false,
      "inputs": [
        {
          "indexed": true,
          "name": "admin",
          "type": "address"
        }
      ],
      "name": "AddedAdmin",
      "type": "event"
    },
    {
      "anonymous": false,
      "inputs": [
        {
          "indexed": true,
          "name": "admin",
          "type": "address"
        }
      ],
      "name": "RemovedAdmin",
      "type": "event"
    },
    {
      "anonymous": false,
      "inputs": [
        {
          "indexed": true,
          "name": "merchant",
          "type": "address"
        },
        {
          "indexed": true,
          "name": "id",
          "type": "uint256"
        }
      ],
      "name": "AddedMerchant",
      "type": "event"
    },
    {
      "anonymous": false,
      "inputs": [
        {
          "indexed": true,
          "name": "merchantId",
          "type": "uint256"
        }
      ],
      "name": "BannedMerchant",
      "type": "event"
    },
    {
      "anonymous": false,
      "inputs": [
        {
          "indexed": true,
          "name": "merchantId",
          "type": "uint256"
        }
      ],
      "name": "ApprovedMerchant",
      "type": "event"
    },
    {
      "anonymous": false,
      "inputs": [
        {
          "indexed": true,
          "name": "merchantId",
          "type": "uint256"
        },
        {
          "indexed": false,
          "name": "oldOwner",
          "type": "address"
        },
        {
          "indexed": false,
          "name": "newOwner",
          "type": "address"
        }
      ],
      "name": "TransferredMerchantOwnership",
      "type": "event"
    },
    {
      "anonymous": false,
      "inputs": [
        {
          "indexed": true,
          "name": "merchantId",
          "type": "uint256"
        },
        {
          "indexed": true,
          "name": "operator",
          "type": "address"
        }
      ],
      "name": "AddedOperator",
      "type": "event"
    },
    {
      "anonymous": false,
      "inputs": [
        {
          "indexed": true,
          "name": "merchantId",
          "type": "uint256"
        },
        {
          "indexed": true,
          "name": "operator",
          "type": "address"
        }
      ],
      "name": "RemovedOperator",
      "type": "event"
    },
    {
      "anonymous": false,
      "inputs": [
        {
          "indexed": true,
          "name": "user",
          "type": "address"
        },
        {
          "indexed": true,
          "name": "id",
          "type": "uint256"
        }
      ],
      "name": "AddedUser",
      "type": "event"
    },
    {
      "anonymous": false,
      "inputs": [
        {
          "indexed": true,
          "name": "user",
          "type": "address"
        },
        {
          "indexed": true,
          "name": "id",
          "type": "uint256"
        }
      ],
      "name": "BannedUser",
      "type": "event"
    },
    {
      "anonymous": false,
      "inputs": [
        {
          "indexed": true,
          "name": "user",
          "type": "address"
        },
        {
          "indexed": true,
          "name": "id",
          "type": "uint256"
        }
      ],
      "name": "ApprovedUser",
      "type": "event"
    },
    {
      "anonymous": false,
      "inputs": [
        {
          "indexed": true,
          "name": "user",
          "type": "address"
        },
        {
          "indexed": true,
          "name": "merchantId",
          "type": "uint256"
        },
        {
          "indexed": false,
          "name": "points",
          "type": "uint256"
        }
      ],
      "name": "RewardedUser",
      "type": "event"
    },
    {
      "anonymous": false,
      "inputs": [
        {
          "indexed": true,
          "name": "user",
          "type": "address"
        },
        {
          "indexed": true,
          "name": "merchantId",
          "type": "uint256"
        },
        {
          "indexed": false,
          "name": "points",
          "type": "uint256"
        }
      ],
      "name": "RedeemedPoints",
      "type": "event"
    },
    {
      "constant": false,
      "inputs": [
        {
          "name": "_admin",
          "type": "address"
        }
      ],
      "name": "addAdmin",
      "outputs": [],
      "payable": false,
      "stateMutability": "nonpayable",
      "type": "function"
    },
    {
      "constant": false,
      "inputs": [
        {
          "name": "_admin",
          "type": "address"
        }
      ],
      "name": "removeAdmin",
      "outputs": [],
      "payable": false,
      "stateMutability": "nonpayable",
      "type": "function"
    },
    {
      "constant": false,
      "inputs": [
        {
          "name": "_merchant",
          "type": "address"
        }
      ],
      "name": "addMerchant",
      "outputs": [],
      "payable": false,
      "stateMutability": "nonpayable",
      "type": "function"
    },
    {
      "constant": false,
      "inputs": [
        {
          "name": "_id",
          "type": "uint256"
        }
      ],
      "name": "banMerchant",
      "outputs": [],
      "payable": false,
      "stateMutability": "nonpayable",
      "type": "function"
    },
    {
      "constant": false,
      "inputs": [
        {
          "name": "_id",
          "type": "uint256"
        }
      ],
      "name": "approveMerchant",
      "outputs": [],
      "payable": false,
      "stateMutability": "nonpayable",
      "type": "function"
    },
    {
      "constant": false,
      "inputs": [
        {
          "name": "_user",
          "type": "address"
        }
      ],
      "name": "addUser",
      "outputs": [],
      "payable": false,
      "stateMutability": "nonpayable",
      "type": "function"
    },
    {
      "constant": false,
      "inputs": [
        {
          "name": "_user",
          "type": "address"
        }
      ],
      "name": "banUser",
      "outputs": [],
      "payable": false,
      "stateMutability": "nonpayable",
      "type": "function"
    },
    {
      "constant": false,
      "inputs": [
        {
          "name": "_user",
          "type": "address"
        }
      ],
      "name": "approveUser",
      "outputs": [],
      "payable": false,
      "stateMutability": "nonpayable",
      "type": "function"
    },
    {
      "constant": false,
      "inputs": [
        {
          "name": "_operator",
          "type": "address"
        }
      ],
      "name": "addOperator",
      "outputs": [],
      "payable": false,
      "stateMutability": "nonpayable",
      "type": "function"
    },
    {
      "constant": false,
      "inputs": [
        {
          "name": "_operator",
          "type": "address"
        }
      ],
      "name": "removeOperator",
      "outputs": [],
      "payable": false,
      "stateMutability": "nonpayable",
      "type": "function"
    },
    {
      "constant": false,
      "inputs": [
        {
          "name": "_newAddr",
          "type": "address"
        }
      ],
      "name": "transferMerchantOwnership",
      "outputs": [],
      "payable": false,
      "stateMutability": "nonpayable",
      "type": "function"
    },
    {
      "constant": false,
      "inputs": [
        {
          "name": "_user",
          "type": "address"
        },
        {
          "name": "_points",
          "type": "uint256"
        }
      ],
      "name": "rewardUser",
      "outputs": [],
      "payable": false,
      "stateMutability": "nonpayable",
      "type": "function"
    },
    {
      "constant": false,
      "inputs": [
        {
          "name": "_mId",
          "type": "uint256"
        },
        {
          "name": "_points",
          "type": "uint256"
        }
      ],
      "name": "redeemPoints",
      "outputs": [],
      "payable": false,
      "stateMutability": "nonpayable",
      "type": "function"
    },
    {
      "constant": true,
      "inputs": [
        {
          "name": "_id",
          "type": "uint256"
        }
      ],
      "name": "getMerchantById",
      "outputs": [
        {
          "name": "",
          "type": "uint256"
        },
        {
          "name": "",
          "type": "address"
        },
        {
          "name": "",
          "type": "bool"
        }
      ],
      "payable": false,
      "stateMutability": "view",
      "type": "function"
    },
    {
      "constant": true,
      "inputs": [
        {
          "name": "_addr",
          "type": "address"
        }
      ],
      "name": "getMerchantByAddr",
      "outputs": [
        {
          "name": "",
          "type": "uint256"
        },
        {
          "name": "",
          "type": "address"
        },
        {
          "name": "",
          "type": "bool"
        }
      ],
      "payable": false,
      "stateMutability": "view",
      "type": "function"
    },
    {
      "constant": true,
      "inputs": [
        {
          "name": "_operator",
          "type": "address"
        },
        {
          "name": "_mId",
          "type": "uint256"
        }
      ],
      "name": "isMerchantOperator",
      "outputs": [
        {
          "name": "",
          "type": "bool"
        }
      ],
      "payable": false,
      "stateMutability": "view",
      "type": "function"
    },
    {
      "constant": true,
      "inputs": [
        {
          "name": "_id",
          "type": "uint256"
        }
      ],
      "name": "getUserById",
      "outputs": [
        {
          "name": "",
          "type": "uint256"
        },
        {
          "name": "",
          "type": "address"
        },
        {
          "name": "",
          "type": "bool"
        },
        {
          "name": "",
          "type": "uint256"
        },
        {
          "name": "",
          "type": "uint256"
        }
      ],
      "payable": false,
      "stateMutability": "view",
      "type": "function"
    },
    {
      "constant": true,
      "inputs": [
        {
          "name": "_addr",
          "type": "address"
        }
      ],
      "name": "getUserByAddr",
      "outputs": [
        {
          "name": "",
          "type": "uint256"
        },
        {
          "name": "",
          "type": "address"
        },
        {
          "name": "",
          "type": "bool"
        },
        {
          "name": "",
          "type": "uint256"
        },
        {
          "name": "",
          "type": "uint256"
        }
      ],
      "payable": false,
      "stateMutability": "view",
      "type": "function"
    },
    {
      "constant": true,
      "inputs": [
        {
          "name": "_user",
          "type": "address"
        },
        {
          "name": "_mId",
          "type": "uint256"
        }
      ],
      "name": "getUserEarnedPointsAtMerchant",
      "outputs": [
        {
          "name": "",
          "type": "uint256"
        }
      ],
      "payable": false,
      "stateMutability": "view",
      "type": "function"
    },
    {
      "constant": true,
      "inputs": [
        {
          "name": "_user",
          "type": "address"
        },
        {
          "name": "_mId",
          "type": "uint256"
        }
      ],
      "name": "getUserRedeemedPointsAtMerchant",
      "outputs": [
        {
          "name": "",
          "type": "uint256"
        }
      ],
      "payable": false,
      "stateMutability": "view",
      "type": "function"
    }
  ],
  "bytecode": "0x608060405234801561001057600080fd5b50600260606040519081016040528060008152602001600073ffffffffffffffffffffffffffffffffffffffff16815260200160001515815250908060018154018082558091505090600182039060005260206000209060030201600090919290919091506000820151816000015560208201518160010160006101000a81548173ffffffffffffffffffffffffffffffffffffffff021916908373ffffffffffffffffffffffffffffffffffffffff16021790555060408201518160010160146101000a81548160ff021916908315150217905550505050600460a06040519081016040528060008152602001600073ffffffffffffffffffffffffffffffffffffffff168152602001600015158152602001600081526020016000815250908060018154018082558091505090600182039060005260206000209060060201600090919290919091506000820151816000015560208201518160010160006101000a81548173ffffffffffffffffffffffffffffffffffffffff021916908373ffffffffffffffffffffffffffffffffffffffff16021790555060408201518160010160146101000a81548160ff0219169083151502179055506060820151816002015560808201518160030155505050336000806101000a81548173ffffffffffffffffffffffffffffffffffffffff021916908373ffffffffffffffffffffffffffffffffffffffff16021790555060016006819055506001600781905550612328806102426000396000f300608060405260043610610128576000357c0100000000000000000000000000000000000000000000000000000000900463ffffffff16806310d86b1f1461012d5780631785f53c146101705780631d210cd2146101b35780632aa39ebf146102325780632d36c611146102c7578063365b98b21461030a578063421b2d8b146103975780636aea3baf146103da5780636ed6da9e1461043f57806370480275146104cc57806392c8823b1461050f5780639870d7fe1461058e578063a4069937146105d1578063ac8a584a14610632578063af74052d14610675578063bf76c0ef146106d6578063c2e7043114610719578063d624fdb614610750578063e39e0e4614610793578063e4e103dc146107c0578063ed556a171461080d578063f16e4e461461083a575b600080fd5b34801561013957600080fd5b5061016e600480360381019080803573ffffffffffffffffffffffffffffffffffffffff1690602001909291905050506108dd565b005b34801561017c57600080fd5b506101b1600480360381019080803573ffffffffffffffffffffffffffffffffffffffff169060200190929190505050610a2d565b005b3480156101bf57600080fd5b506101de60048036038101908080359060200190929190505050610b26565b604051808481526020018373ffffffffffffffffffffffffffffffffffffffff1673ffffffffffffffffffffffffffffffffffffffff16815260200182151515158152602001935050505060405180910390f35b34801561023e57600080fd5b50610273600480360381019080803573ffffffffffffffffffffffffffffffffffffffff169060200190929190505050610ba9565b604051808481526020018373ffffffffffffffffffffffffffffffffffffffff1673ffffffffffffffffffffffffffffffffffffffff16815260200182151515158152602001935050505060405180910390f35b3480156102d357600080fd5b50610308600480360381019080803573ffffffffffffffffffffffffffffffffffffffff169060200190929190505050610c08565b005b34801561031657600080fd5b5061033560048036038101908080359060200190929190505050610dfd565b604051808681526020018573ffffffffffffffffffffffffffffffffffffffff1673ffffffffffffffffffffffffffffffffffffffff168152602001841515151581526020018381526020018281526020019550505050505060405180910390f35b3480156103a357600080fd5b506103d8600480360381019080803573ffffffffffffffffffffffffffffffffffffffff169060200190929190505050610e6f565b005b3480156103e657600080fd5b50610425600480360381019080803573ffffffffffffffffffffffffffffffffffffffff169060200190929190803590602001909291905050506110b3565b604051808215151515815260200191505060405180910390f35b34801561044b57600080fd5b5061046a6004803603810190808035906020019092919050505061113c565b604051808681526020018573ffffffffffffffffffffffffffffffffffffffff1673ffffffffffffffffffffffffffffffffffffffff168152602001841515151581526020018381526020018281526020019550505050505060405180910390f35b3480156104d857600080fd5b5061050d600480360381019080803573ffffffffffffffffffffffffffffffffffffffff1690602001909291905050506111d2565b005b34801561051b57600080fd5b5061053a600480360381019080803590602001909291905050506112ca565b604051808481526020018373ffffffffffffffffffffffffffffffffffffffff1673ffffffffffffffffffffffffffffffffffffffff16815260200182151515158152602001935050505060405180910390f35b34801561059a57600080fd5b506105cf600480360381019080803573ffffffffffffffffffffffffffffffffffffffff169060200190929190505050611330565b005b3480156105dd57600080fd5b5061061c600480360381019080803573ffffffffffffffffffffffffffffffffffffffff16906020019092919080359060200190929190505050611455565b6040518082815260200191505060405180910390f35b34801561063e57600080fd5b50610673600480360381019080803573ffffffffffffffffffffffffffffffffffffffff1690602001909291905050506114fd565b005b34801561068157600080fd5b506106c0600480360381019080803573ffffffffffffffffffffffffffffffffffffffff169060200190929190803590602001909291905050506115ed565b6040518082815260200191505060405180910390f35b3480156106e257600080fd5b50610717600480360381019080803573ffffffffffffffffffffffffffffffffffffffff169060200190929190505050611661565b005b34801561072557600080fd5b5061074e6004803603810190808035906020019092919080359060200190929190505050611883565b005b34801561075c57600080fd5b50610791600480360381019080803573ffffffffffffffffffffffffffffffffffffffff169060200190929190505050611aea565b005b34801561079f57600080fd5b506107be60048036038101908080359060200190929190505050611c3a565b005b3480156107cc57600080fd5b5061080b600480360381019080803573ffffffffffffffffffffffffffffffffffffffff16906020019092919080359060200190929190505050611d66565b005b34801561081957600080fd5b5061083860048036038101908080359060200190929190505050611f8c565b005b34801561084657600080fd5b5061087b600480360381019080803573ffffffffffffffffffffffffffffffffffffffff1690602001909291905050506120b9565b604051808681526020018573ffffffffffffffffffffffffffffffffffffffff1673ffffffffffffffffffffffffffffffffffffffff168152602001841515151581526020018381526020018281526020019550505050505060405180910390f35b6000600160003373ffffffffffffffffffffffffffffffffffffffff1673ffffffffffffffffffffffffffffffffffffffff16815260200190815260200160002060009054906101000a900460ff168061098357506000809054906101000a900473ffffffffffffffffffffffffffffffffffffffff1673ffffffffffffffffffffffffffffffffffffffff163373ffffffffffffffffffffffffffffffffffffffff16145b151561098e57600080fd5b610997826120b9565b5050505090506000811115156109ac57600080fd5b60006004828154811015156109bd57fe5b906000526020600020906006020160010160146101000a81548160ff021916908315150217905550808273ffffffffffffffffffffffffffffffffffffffff167fc2be27190c9a0cc5a468331be74b4e27eb88b54465e6d34a9cfd50d05f43dcf960405160405180910390a35050565b6000809054906101000a900473ffffffffffffffffffffffffffffffffffffffff1673ffffffffffffffffffffffffffffffffffffffff163373ffffffffffffffffffffffffffffffffffffffff16141515610a8857600080fd5b6000600160008373ffffffffffffffffffffffffffffffffffffffff1673ffffffffffffffffffffffffffffffffffffffff16815260200190815260200160002060006101000a81548160ff0219169083151502179055508073ffffffffffffffffffffffffffffffffffffffff167f3137a7fedbfedb7895dfa5a6812a4566dae9ded68d00aeec13c6ed1fa84a1c8060405160405180910390a250565b600080600080610b3585612121565b1515610b4057600080fd5b600285815481101515610b4f57fe5b9060005260206000209060030201905080600001548160010160009054906101000a900473ffffffffffffffffffffffffffffffffffffffff168260010160149054906101000a900460ff16935093509350509193909250565b600080600080600360008673ffffffffffffffffffffffffffffffffffffffff1673ffffffffffffffffffffffffffffffffffffffff168152602001908152602001600020549050610bfa81610b26565b935093509350509193909250565b6000610c133361214f565b1515610c1e57600080fd5b610c2733610ba9565b50509050600081111515610c3a57600080fd5b81600282815481101515610c4a57fe5b906000526020600020906003020160010160006101000a81548173ffffffffffffffffffffffffffffffffffffffff021916908373ffffffffffffffffffffffffffffffffffffffff160217905550600360003373ffffffffffffffffffffffffffffffffffffffff1673ffffffffffffffffffffffffffffffffffffffff16815260200190815260200160002054600360008473ffffffffffffffffffffffffffffffffffffffff1673ffffffffffffffffffffffffffffffffffffffff168152602001908152602001600020819055506000600360003373ffffffffffffffffffffffffffffffffffffffff1673ffffffffffffffffffffffffffffffffffffffff16815260200190815260200160002081905550807f38e5caf6dbff8a17136395c8c098a4dadbc2ab6724b71a9569100d8d35664afc3384604051808373ffffffffffffffffffffffffffffffffffffffff1673ffffffffffffffffffffffffffffffffffffffff1681526020018273ffffffffffffffffffffffffffffffffffffffff1673ffffffffffffffffffffffffffffffffffffffff1681526020019250505060405180910390a25050565b600481815481101515610e0c57fe5b90600052602060002090600602016000915090508060000154908060010160009054906101000a900473ffffffffffffffffffffffffffffffffffffffff16908060010160149054906101000a900460ff16908060020154908060030154905085565b600160003373ffffffffffffffffffffffffffffffffffffffff1673ffffffffffffffffffffffffffffffffffffffff16815260200190815260200160002060009054906101000a900460ff1680610f1357506000809054906101000a900473ffffffffffffffffffffffffffffffffffffffff1673ffffffffffffffffffffffffffffffffffffffff163373ffffffffffffffffffffffffffffffffffffffff16145b1515610f1e57600080fd5b600460a06040519081016040528060075481526020018373ffffffffffffffffffffffffffffffffffffffff168152602001600115158152602001600081526020016000815250908060018154018082558091505090600182039060005260206000209060060201600090919290919091506000820151816000015560208201518160010160006101000a81548173ffffffffffffffffffffffffffffffffffffffff021916908373ffffffffffffffffffffffffffffffffffffffff16021790555060408201518160010160146101000a81548160ff0219169083151502179055506060820151816002015560808201518160030155505050600754600560008373ffffffffffffffffffffffffffffffffffffffff1673ffffffffffffffffffffffffffffffffffffffff168152602001908152602001600020819055506007548173ffffffffffffffffffffffffffffffffffffffff167fb6364826b84fdf145940760aab6fcaeeb0d90c5296e070d0db7ec6dec78fe39760405160405180910390a360016007540160078190555050565b60006110be82612121565b15156110c957600080fd5b6002828154811015156110d857fe5b906000526020600020906003020160020160008473ffffffffffffffffffffffffffffffffffffffff1673ffffffffffffffffffffffffffffffffffffffff16815260200190815260200160002060009054906101000a900460ff16905092915050565b60008060008060008061114e8761221c565b151561115957600080fd5b60048781548110151561116857fe5b9060005260206000209060060201905080600001548160010160009054906101000a900473ffffffffffffffffffffffffffffffffffffffff168260010160149054906101000a900460ff1683600201548460030154955095509550955095505091939590929450565b6000809054906101000a900473ffffffffffffffffffffffffffffffffffffffff1673ffffffffffffffffffffffffffffffffffffffff163373ffffffffffffffffffffffffffffffffffffffff1614151561122d57600080fd5b60018060008373ffffffffffffffffffffffffffffffffffffffff1673ffffffffffffffffffffffffffffffffffffffff16815260200190815260200160002060006101000a81548160ff0219169083151502179055508073ffffffffffffffffffffffffffffffffffffffff167f7849194239ab1d31b991b5436d81370256505cf25eaafbcccbc66acd1189691660405160405180910390a250565b6002818154811015156112d957fe5b90600052602060002090600302016000915090508060000154908060010160009054906101000a900473ffffffffffffffffffffffffffffffffffffffff16908060010160149054906101000a900460ff16905083565b600061133b3361214f565b151561134657600080fd5b61134f33610ba9565b50509050600160028281548110151561136457fe5b906000526020600020906003020160020160008473ffffffffffffffffffffffffffffffffffffffff1673ffffffffffffffffffffffffffffffffffffffff16815260200190815260200160002060006101000a81548160ff02191690831515021790555080600360008473ffffffffffffffffffffffffffffffffffffffff1673ffffffffffffffffffffffffffffffffffffffff168152602001908152602001600020819055508173ffffffffffffffffffffffffffffffffffffffff16817fe0e5cf542d864cc28fe9bb93f8015ebb10e7444d3a453cab31808fdc63ebc73960405160405180910390a35050565b600080600560008573ffffffffffffffffffffffffffffffffffffffff1673ffffffffffffffffffffffffffffffffffffffff1681526020019081526020016000205490506114a38161221c565b15156114ae57600080fd5b6114b783612121565b15156114c257600080fd5b6004818154811015156114d157fe5b906000526020600020906006020160040160008481526020019081526020016000205491505092915050565b60006115083361214f565b151561151357600080fd5b61151c33610ba9565b5050905060008111151561152f57600080fd5b600060028281548110151561154057fe5b906000526020600020906003020160020160008473ffffffffffffffffffffffffffffffffffffffff1673ffffffffffffffffffffffffffffffffffffffff16815260200190815260200160002060006101000a81548160ff0219169083151502179055508173ffffffffffffffffffffffffffffffffffffffff16817fd9d7cc28479337025556e9b66d9ddf15f30c4ca07a5cac044b3fc4ab88e172fa60405160405180910390a35050565b600080600560008573ffffffffffffffffffffffffffffffffffffffff1673ffffffffffffffffffffffffffffffffffffffff16815260200190815260200160002054905061163b8161221c565b151561164657600080fd5b61164f83612121565b151561165a57600080fd5b5092915050565b600160003373ffffffffffffffffffffffffffffffffffffffff1673ffffffffffffffffffffffffffffffffffffffff16815260200190815260200160002060009054906101000a900460ff168061170557506000809054906101000a900473ffffffffffffffffffffffffffffffffffffffff1673ffffffffffffffffffffffffffffffffffffffff163373ffffffffffffffffffffffffffffffffffffffff16145b151561171057600080fd5b600260606040519081016040528060065481526020018373ffffffffffffffffffffffffffffffffffffffff16815260200160011515815250908060018154018082558091505090600182039060005260206000209060030201600090919290919091506000820151816000015560208201518160010160006101000a81548173ffffffffffffffffffffffffffffffffffffffff021916908373ffffffffffffffffffffffffffffffffffffffff16021790555060408201518160010160146101000a81548160ff021916908315150217905550505050600654600360008373ffffffffffffffffffffffffffffffffffffffff1673ffffffffffffffffffffffffffffffffffffffff168152602001908152602001600020819055506006548173ffffffffffffffffffffffffffffffffffffffff167fb01084884fee4c17d9a0f749b67b3ca7ebb78283da33d6843d7f46b41697b51360405160405180910390a360016006540160068190555050565b60006118cd600560003373ffffffffffffffffffffffffffffffffffffffff1673ffffffffffffffffffffffffffffffffffffffff1681526020019081526020016000205461224a565b15156118d857600080fd5b6118e1336120b9565b5050505090506000811115156118f657600080fd5b8160048281548110151561190657fe5b90600052602060002090600602016004016000858152602001908152602001600020541015151561193657600080fd5b8160048281548110151561194657fe5b9060005260206000209060060201600201540360048281548110151561196857fe5b9060005260206000209060060201600201819055508160048281548110151561198d57fe5b906000526020600020906006020160030154016004828154811015156119af57fe5b906000526020600020906006020160030181905550816004828154811015156119d457fe5b906000526020600020906006020160040160008581526020019081526020016000205403600482815481101515611a0757fe5b906000526020600020906006020160040160008581526020019081526020016000208190555081600482815481101515611a3d57fe5b906000526020600020906006020160050160008581526020019081526020016000205401600482815481101515611a7057fe5b9060005260206000209060060201600501600085815260200190815260200160002081905550823373ffffffffffffffffffffffffffffffffffffffff167fceca6bbcf2a10edbed79404a8d9ed1920eabd78e40a8fd9216e3fb7adf82732d846040518082815260200191505060405180910390a3505050565b6000600160003373ffffffffffffffffffffffffffffffffffffffff1673ffffffffffffffffffffffffffffffffffffffff16815260200190815260200160002060009054906101000a900460ff1680611b9057506000809054906101000a900473ffffffffffffffffffffffffffffffffffffffff1673ffffffffffffffffffffffffffffffffffffffff163373ffffffffffffffffffffffffffffffffffffffff16145b1515611b9b57600080fd5b611ba4826120b9565b505050509050600081111515611bb957600080fd5b6001600482815481101515611bca57fe5b906000526020600020906006020160010160146101000a81548160ff021916908315150217905550808273ffffffffffffffffffffffffffffffffffffffff167f9b6e57c14b4616ba96329167ca0ade31b69b7fe5a606c5524df505573629c76e60405160405180910390a35050565b600160003373ffffffffffffffffffffffffffffffffffffffff1673ffffffffffffffffffffffffffffffffffffffff16815260200190815260200160002060009054906101000a900460ff1680611cde57506000809054906101000a900473ffffffffffffffffffffffffffffffffffffffff1673ffffffffffffffffffffffffffffffffffffffff163373ffffffffffffffffffffffffffffffffffffffff16145b1515611ce957600080fd5b611cf2816122a3565b1515611cfd57600080fd5b6000600282815481101515611d0e57fe5b906000526020600020906003020160010160146101000a81548160ff021916908315150217905550807fc02a043301f509d07256b46027d2dbd985c4bcb1a950c4e02f509b7b636fe0cc60405160405180910390a250565b600080600080600360003373ffffffffffffffffffffffffffffffffffffffff1673ffffffffffffffffffffffffffffffffffffffff168152602001908152602001600020549150600282815481101515611dbd57fe5b906000526020600020906003020160020160003373ffffffffffffffffffffffffffffffffffffffff1673ffffffffffffffffffffffffffffffffffffffff16815260200190815260200160002060009054906101000a900460ff169050611e24826122a3565b1515611e2f57600080fd5b611e383361214f565b80611e405750805b1515611e4b57600080fd5b611e54866120b9565b505050509350600084111515611e6957600080fd5b84600485815481101515611e7957fe5b90600052602060002090600602016002015401600485815481101515611e9b57fe5b906000526020600020906006020160020181905550611eb933610ba9565b50509250600083111515611ecc57600080fd5b84600485815481101515611edc57fe5b906000526020600020906006020160040160008581526020019081526020016000205401600485815481101515611f0f57fe5b9060005260206000209060060201600401600085815260200190815260200160002081905550828673ffffffffffffffffffffffffffffffffffffffff167febb6a0504656d3cdee7f7be46f49f658865ac524116e57e2a20fc185b42b2b3a876040518082815260200191505060405180910390a3505050505050565b600160003373ffffffffffffffffffffffffffffffffffffffff1673ffffffffffffffffffffffffffffffffffffffff16815260200190815260200160002060009054906101000a900460ff168061203057506000809054906101000a900473ffffffffffffffffffffffffffffffffffffffff1673ffffffffffffffffffffffffffffffffffffffff163373ffffffffffffffffffffffffffffffffffffffff16145b151561203b57600080fd5b612044816122a3565b15151561205057600080fd5b600160028281548110151561206157fe5b906000526020600020906003020160010160146101000a81548160ff021916908315150217905550807f4ddf5536c4e0a31688a6c51b0098e0186571b2b56df7c3cfa60777d9459b0bb960405160405180910390a250565b600080600080600080600560008873ffffffffffffffffffffffffffffffffffffffff1673ffffffffffffffffffffffffffffffffffffffff16815260200190815260200160002054905061210d8161113c565b955095509550955095505091939590929450565b6000808214158015612137575060028054905082105b15612145576001905061214a565b600090505b919050565b600080600360008473ffffffffffffffffffffffffffffffffffffffff1673ffffffffffffffffffffffffffffffffffffffff16815260200190815260200160002054905061219d816122a3565b801561221457508273ffffffffffffffffffffffffffffffffffffffff166002828154811015156121ca57fe5b906000526020600020906003020160010160009054906101000a900473ffffffffffffffffffffffffffffffffffffffff1673ffffffffffffffffffffffffffffffffffffffff16145b915050919050565b6000808214158015612232575060048054905082105b156122405760019050612245565b600090505b919050565b60006122558261221c565b801561228b575060048281548110151561226b57fe5b906000526020600020906006020160010160149054906101000a900460ff165b15612299576001905061229e565b600090505b919050565b60006122ae82612121565b80156122e457506002828154811015156122c457fe5b906000526020600020906003020160010160149054906101000a900460ff165b156122f257600190506122f7565b600090505b9190505600a165627a7a72305820b3e518b6dc14008296af3cf03999daa2155e9cb6366883b63b2e4528b564180e0029",
  "source": "pragma solidity ^0.4.24;\n\ncontract RewardPoints {\n    address private owner;\n    mapping(address => bool) private isAdmin; // Quick way to check if an addr is an Admin\n\n    struct Merchant {\n        uint id;\n        address addr; // the organization's owner address\n        bool isApproved;\n        mapping(address => bool) isOperator; // is addr approved by Merchant as operator\n    }\n    Merchant[] public merchants;\n    mapping(address => uint) private addrToMerchantId; // get merchantId from an addr\n\n    struct User {\n        uint id;\n        address addr;\n        bool isApproved;\n        uint totalEarnedPoints;\n        uint totalReedemedPoints;\n        mapping(uint => uint) merchantToEarnedPts; // keep track of points earned from each merchant separately\n        mapping(uint => uint) merchantToRedeemedPts; // keep track of points used for at each merchant\n    }\n    User[] public users;\n    mapping(address => uint) private addrToUserId;\n\n\n    //Lopes additions\n    uint private merID;\n    uint private usrID;\n\n    // =================================\n    // Events and modifiers\n    // =================================\n    event AddedAdmin(address indexed admin);\n    event RemovedAdmin(address indexed admin);\n\n    event AddedMerchant(address indexed merchant, uint indexed id);\n    event BannedMerchant(uint indexed merchantId);\n    event ApprovedMerchant(uint indexed merchantId);\n    event TransferredMerchantOwnership(uint indexed merchantId, address oldOwner, address newOwner);\n\n    event AddedOperator(uint indexed merchantId, address indexed operator);\n    event RemovedOperator(uint indexed merchantId, address indexed operator);\n\n    event AddedUser(address indexed user, uint indexed id);\n    event BannedUser(address indexed user, uint indexed id);\n    event ApprovedUser(address indexed user, uint indexed id);\n\n    event RewardedUser(address indexed user, uint indexed merchantId, uint points);\n    event RedeemedPoints(address indexed user, uint indexed merchantId, uint points);\n\n    modifier onlyOwner() {\n        require(msg.sender == owner);\n        _;\n    }\n\n    modifier onlyAdmin() {\n        require(isAdmin[msg.sender] || msg.sender == owner);\n        _;\n    }\n\n    function merchantExist(uint _id) internal view returns(bool) {\n        if (_id != 0 && _id < merchants.length) return true;\n        return false;\n    }\n\n    function isMerchantValid(uint _id) internal view returns(bool) {\n        if(merchantExist(_id) && merchants[_id].isApproved) return true;\n        return false;\n    }\n\n    function isMerchantOwner(address _owner) internal view returns(bool) {\n        uint id = addrToMerchantId[_owner];\n        return (isMerchantValid(id) && merchants[id].addr == _owner);\n    }\n\n    modifier onlyMerchantOwner() {\n        require(isMerchantOwner(msg.sender));\n        _;\n    }\n\n    modifier onlyMerchant() {\n        uint id = addrToMerchantId[msg.sender];\n        bool isOperator = merchants[id].isOperator[msg.sender];\n        require(isMerchantValid(id));\n        require(isMerchantOwner(msg.sender) || isOperator);\n        _;\n    }\n\n    function userExist(uint _id) internal view returns(bool) {\n        if(_id != 0 && _id < users.length) return true;\n        return false;\n    }\n\n    function isUserValid(uint _id) internal view returns(bool) {\n        if(userExist(_id) && users[_id].isApproved) return true;\n        return false;\n    }\n\n    modifier onlyUser() {\n        require(isUserValid(addrToUserId[msg.sender]));\n        _;\n    }\n\n    constructor() public {\n        // Do not use ID 0 for first user and merchant to avoid returning invalid\n        // first merchant/user when looking it up with addrToMerchantID mapping\n        merchants.push(Merchant(0, 0, false));\n        users.push(User(0, 0, false, 0, 0));\n        owner = msg.sender;\n        merID = 1;\n        usrID = 1;\n    }\n\n    // =================================\n    // Owner Only\n    // =================================\n    function addAdmin(address _admin) external onlyOwner {\n        // TODO: your code here\n        isAdmin[_admin] = true;\n        emit AddedAdmin(_admin);\n    }\n\n    function removeAdmin(address _admin) external onlyOwner {\n        // TODO: your code here\n        isAdmin[_admin] = false;\n        emit RemovedAdmin(_admin);\n    }\n\n    // =================================\n    // Admin Only Actions\n    // =================================\n    function addMerchant(address _merchant) external onlyAdmin {\n        // TODO: your code here\n        // Hints: Remember the index into the array is the ID\n        // 1. Create a new merchant and assign various fields\n        // 2. Push new merchant into array\n        // 3. Update addrToMerchantId mapping\n        // 4. Emit event\n\n        merchants.push(Merchant(merID, _merchant, true));\n        addrToMerchantId[_merchant] = merID;\n        emit AddedMerchant(_merchant, merID);\n        \n        merID = merID + 1;\n\n    }\n\n    function banMerchant(uint _id) external onlyAdmin {\n        // TODO: your code here\n        // Hints: Only ban merchants that are valid and\n        // remember we're not removing a merchant.\n        require (isMerchantValid(_id));\n        merchants[_id].isApproved = false;\n        emit BannedMerchant(_id);\n    }\n\n    function approveMerchant(uint _id) external onlyAdmin {\n        // TODO: your code here\n        // Hints: Do the reverse of banMerchant\n        require (!isMerchantValid(_id));\n        merchants[_id].isApproved = true;\n        emit ApprovedMerchant(_id);\n    }\n\n    function addUser(address _user) external onlyAdmin {\n        // TODO: your code here\n        // Hints: Similar steps to addMerchant\n        users.push(User(usrID, _user, true, 0, 0));\n        addrToUserId[_user] = usrID;\n        emit AddedUser(_user, usrID);\n\n        usrID = usrID + 1;\n    }\n\n    function banUser(address _user) external onlyAdmin {\n        // TODO: your code here\n        // Hints: Similar to banMerchant but the input\n        // parameter is user address instead of ID.\n        \n        (uint tmpUId,,,,) = getUserByAddr(_user);\n        require(tmpUId > 0);\n        \n        users[tmpUId].isApproved = false;\n        emit BannedUser(_user, tmpUId);\n    }\n\n    function approveUser(address _user) external onlyAdmin {\n        // TODO: your code here\n        // Hints: Do the reverse of banUser\n      \n        (uint tmpUId,,,,) = getUserByAddr(_user);\n        require(tmpUId > 0);\n        \n        users[tmpUId].isApproved = true;\n        emit ApprovedUser(_user, tmpUId);\n    }\n\n    // =================================\n    // Merchant Owner Only Actions\n    // =================================\n    function addOperator(address _operator) external onlyMerchantOwner {\n        // TODO: your code here\n        // Hints:\n        // 1. Get the merchant ID from msg.sender\n        // 2. Set the correct field within the Merchant Struct\n        // 3. Update addrToMerchantId mapping\n        // 4. Emit event\n\n        (uint tmpId,,)  = getMerchantByAddr(msg.sender);\n        merchants[tmpId].isOperator[_operator] = true;\n        addrToMerchantId[_operator] = tmpId;\n        emit AddedOperator(tmpId, _operator);\n    }\n\n    function removeOperator(address _operator) external onlyMerchantOwner {\n        // TODO: your code here\n        // Hints: Do the reverse of addOperator\n        \n        (uint tmpId,,)  = getMerchantByAddr(msg.sender);\n        require(tmpId > 0);\n        merchants[tmpId].isOperator[_operator] = false;\n        emit RemovedOperator(tmpId, _operator);\n    }\n\n    function transferMerchantOwnership(address _newAddr) external onlyMerchantOwner {\n        // TODO: your code here\n        // Hints: Similar to addOperator but update different fields\n        // but remember to update the addrToMerchantId twice. Once to\n        // remove the old owner and once for the new owner.\n\n        (uint tmpId,,) = getMerchantByAddr(msg.sender);\n        require(tmpId > 0);\n        merchants[tmpId].addr = _newAddr;\n        addrToMerchantId[_newAddr] = addrToMerchantId[msg.sender];\n        addrToMerchantId[msg.sender] = 0;\n\n        emit TransferredMerchantOwnership(tmpId, msg.sender, _newAddr);\n    }\n\n    // =================================\n    // Merchant only actions\n    // =================================\n    function rewardUser(address _user, uint _points) external onlyMerchant {\n        // TODO: your code here\n        // Hints: update the total and per merchant points\n        // for the user in the User struct.\n        \n        (uint tmpUId,,,,) = getUserByAddr(_user);\n        require(tmpUId > 0);\n        users[tmpUId].totalEarnedPoints = users[tmpUId].totalEarnedPoints + _points;\n\n        (uint tmpId,,) = getMerchantByAddr(msg.sender);\n        require(tmpId > 0);\n        users[tmpUId].merchantToEarnedPts[tmpId] = users[tmpUId].merchantToEarnedPts[tmpId] + _points;\n        emit RewardedUser(_user, tmpId, _points);\n    }\n\n    // =================================\n    // User only action\n    // =================================\n    function redeemPoints(uint _mId, uint _points) external onlyUser {\n        // TODO: your code here\n        // Hints:\n        // 1. Get the user ID from caller\n        // 2. Ensure user has at least _points at merchant with id _mID\n        // 3. Update the appropriate fields in User structs\n        // 4. Emit event\n        \n        (uint tmpUId,,,,) = getUserByAddr(msg.sender);\n        require(tmpUId > 0);\n        require(users[tmpUId].merchantToEarnedPts[_mId] >= _points);\n\n        users[tmpUId].totalEarnedPoints = users[tmpUId].totalEarnedPoints - _points;\n        users[tmpUId].totalReedemedPoints = users[tmpUId].totalReedemedPoints + _points;\n        users[tmpUId].merchantToEarnedPts[_mId] = users[tmpUId].merchantToEarnedPts[_mId] - _points;\n        users[tmpUId].merchantToRedeemedPts[_mId] = users[tmpUId].merchantToRedeemedPts[_mId] + _points;\n\n        emit RedeemedPoints(msg.sender, _mId, _points);\n    }\n\n    // =================================\n    // Getters\n    // =================================\n\n    function getMerchantById(uint _id) public view returns(uint, address, bool) {\n        require(merchantExist(_id));\n        Merchant storage m = merchants[_id];\n        return(m.id, m.addr, m.isApproved);\n    }\n\n    function getMerchantByAddr(address _addr) public view returns(uint, address, bool) {\n        uint id = addrToMerchantId[_addr];\n        return getMerchantById(id);\n    }\n\n    function isMerchantOperator(address _operator, uint _mId) public view returns(bool) {\n        require(merchantExist(_mId));\n        return merchants[_mId].isOperator[_operator];\n    }\n\n    function getUserById(uint _id) public view returns(uint, address, bool, uint, uint) {\n        require(userExist(_id));\n        User storage u = users[_id];\n        return(u.id, u.addr, u.isApproved, u.totalEarnedPoints, u.totalReedemedPoints);\n    }\n\n    function getUserByAddr(address _addr) public view returns(uint, address, bool, uint, uint) {\n        uint id = addrToUserId[_addr];\n        return getUserById(id);\n    }\n\n    function getUserEarnedPointsAtMerchant(address _user, uint _mId) public view returns(uint) {\n        uint uId = addrToUserId[_user];\n        require(userExist(uId));\n        require(merchantExist(_mId));\n        return users[uId].merchantToEarnedPts[_mId];\n    }\n\n    function getUserRedeemedPointsAtMerchant(address _user, uint _mId) public view returns(uint) {\n        uint uId = addrToUserId[_user];\n        require(userExist(uId));\n        require(merchantExist(_mId));\n       // return users[uId].merchantToRedeemedPts[_mId];\n    }\n\n}",
  "sourcePath": "D:\\hp\\Dropbox\\Courses\\BlockChain1\\Week4\\contracts\\RewardPoints.sol",
  "compiler": {
    "name": "solc",
    "version": "0.4.24+commit.e67f0147.Emscripten.clang"
  },
  "schemaVersion": "2.0.1",
  "updatedAt": "2018-11-30T21:59:03.265Z"
}